{
  "_format": "hh-sol-artifact-1",
  "contractName": "GalleryMarketplace",
  "sourceName": "contracts/GalleryMarketplace.sol",
  "abi": [
    {
      "inputs": [
        {
          "internalType": "uint256",
          "name": "_fee",
          "type": "uint256"
        }
      ],
      "stateMutability": "nonpayable",
      "type": "constructor"
    },
    {
      "anonymous": false,
      "inputs": [
        {
          "indexed": true,
          "internalType": "address",
          "name": "previousOwner",
          "type": "address"
        },
        {
          "indexed": true,
          "internalType": "address",
          "name": "newOwner",
          "type": "address"
        }
      ],
      "name": "OwnershipTransferred",
      "type": "event"
    },
    {
      "inputs": [],
      "name": "MAX_FEE",
      "outputs": [
        {
          "internalType": "uint256",
          "name": "",
          "type": "uint256"
        }
      ],
      "stateMutability": "view",
      "type": "function"
    },
    {
      "inputs": [
        {
          "internalType": "address",
          "name": "nft",
          "type": "address"
        },
        {
          "internalType": "uint256",
          "name": "tokenId",
          "type": "uint256"
        }
      ],
      "name": "buyItem",
      "outputs": [],
      "stateMutability": "payable",
      "type": "function"
    },
    {
      "inputs": [
        {
          "internalType": "address",
          "name": "nft",
          "type": "address"
        },
        {
          "internalType": "uint256",
          "name": "tokenId",
          "type": "uint256"
        }
      ],
      "name": "cancelListing",
      "outputs": [],
      "stateMutability": "nonpayable",
      "type": "function"
    },
    {
      "inputs": [
        {
          "internalType": "address",
          "name": "nft",
          "type": "address"
        },
        {
          "internalType": "uint256",
          "name": "tokenId",
          "type": "uint256"
        },
        {
          "internalType": "uint256",
          "name": "price",
          "type": "uint256"
        }
      ],
      "name": "listItem",
      "outputs": [],
      "stateMutability": "nonpayable",
      "type": "function"
    },
    {
      "inputs": [
        {
          "internalType": "address",
          "name": "",
          "type": "address"
        },
        {
          "internalType": "uint256",
          "name": "",
          "type": "uint256"
        }
      ],
      "name": "listings",
      "outputs": [
        {
          "internalType": "address",
          "name": "seller",
          "type": "address"
        },
        {
          "internalType": "uint256",
          "name": "price",
          "type": "uint256"
        }
      ],
      "stateMutability": "view",
      "type": "function"
    },
    {
      "inputs": [],
      "name": "marketplaceFee",
      "outputs": [
        {
          "internalType": "uint256",
          "name": "",
          "type": "uint256"
        }
      ],
      "stateMutability": "view",
      "type": "function"
    },
    {
      "inputs": [
        {
          "internalType": "address",
          "name": "",
          "type": "address"
        },
        {
          "internalType": "address",
          "name": "",
          "type": "address"
        },
        {
          "internalType": "uint256",
          "name": "",
          "type": "uint256"
        },
        {
          "internalType": "bytes",
          "name": "",
          "type": "bytes"
        }
      ],
      "name": "onERC721Received",
      "outputs": [
        {
          "internalType": "bytes4",
          "name": "",
          "type": "bytes4"
        }
      ],
      "stateMutability": "pure",
      "type": "function"
    },
    {
      "inputs": [],
      "name": "owner",
      "outputs": [
        {
          "internalType": "address",
          "name": "",
          "type": "address"
        }
      ],
      "stateMutability": "view",
      "type": "function"
    },
    {
      "inputs": [],
      "name": "renounceOwnership",
      "outputs": [],
      "stateMutability": "nonpayable",
      "type": "function"
    },
    {
      "inputs": [
        {
          "internalType": "address",
          "name": "newOwner",
          "type": "address"
        }
      ],
      "name": "transferOwnership",
      "outputs": [],
      "stateMutability": "nonpayable",
      "type": "function"
    }
  ],
  "bytecode": "0x60806040523480156200001157600080fd5b5060405162001b4d38038062001b4d8339818101604052810190620000379190620001c3565b60016000819055506200005f62000053620000b560201b60201c565b620000bd60201b60201c565b6103e8811115620000a7576040517f08c379a00000000000000000000000000000000000000000000000000000000081526004016200009e9062000256565b60405180910390fd5b806002819055505062000278565b600033905090565b6000600160009054906101000a900473ffffffffffffffffffffffffffffffffffffffff16905081600160006101000a81548173ffffffffffffffffffffffffffffffffffffffff021916908373ffffffffffffffffffffffffffffffffffffffff1602179055508173ffffffffffffffffffffffffffffffffffffffff168173ffffffffffffffffffffffffffffffffffffffff167f8be0079c531659141344cd1fd0a4f28419497f9722a3daafe3b4186f6b6457e060405160405180910390a35050565b600080fd5b6000819050919050565b6200019d8162000188565b8114620001a957600080fd5b50565b600081519050620001bd8162000192565b92915050565b600060208284031215620001dc57620001db62000183565b5b6000620001ec84828501620001ac565b91505092915050565b600082825260208201905092915050565b7f46656520746f6f20686967680000000000000000000000000000000000000000600082015250565b60006200023e600c83620001f5565b91506200024b8262000206565b602082019050919050565b6000602082019050818103600083015262000271816200022f565b9050919050565b6118c580620002886000396000f3fe6080604052600436106100905760003560e01c80638da5cb5b116100595780638da5cb5b1461017b5780639f37092a146101a6578063b2ddee06146101c2578063bc063e1a146101eb578063f2fde38b1461021657610090565b806207df3014610095578063150b7a02146100d35780636a16696414610110578063715018a61461013b57806389bfd38f14610152575b600080fd5b3480156100a157600080fd5b506100bc60048036038101906100b79190610fab565b61023f565b6040516100ca929190611009565b60405180910390f35b3480156100df57600080fd5b506100fa60048036038101906100f59190611097565b610290565b604051610107919061115a565b60405180910390f35b34801561011c57600080fd5b506101256102a5565b6040516101329190611175565b60405180910390f35b34801561014757600080fd5b506101506102ab565b005b34801561015e57600080fd5b5061017960048036038101906101749190611190565b6102bf565b005b34801561018757600080fd5b506101906105d8565b60405161019d91906111e3565b60405180910390f35b6101c060048036038101906101bb9190610fab565b610602565b005b3480156101ce57600080fd5b506101e960048036038101906101e49190610fab565b610aa8565b005b3480156101f757600080fd5b50610200610cdf565b60405161020d9190611175565b60405180910390f35b34801561022257600080fd5b5061023d600480360381019061023891906111fe565b610ce5565b005b6003602052816000526040600020602052806000526040600020600091509150508060000160009054906101000a900473ffffffffffffffffffffffffffffffffffffffff16908060010154905082565b600063150b7a0260e01b905095945050505050565b60025481565b6102b3610d68565b6102bd6000610de6565b565b6102c7610eac565b6000811161030a576040517f08c379a000000000000000000000000000000000000000000000000000000000815260040161030190611288565b60405180910390fd5b6000600360008573ffffffffffffffffffffffffffffffffffffffff1673ffffffffffffffffffffffffffffffffffffffff168152602001908152602001600020600084815260200190815260200160002060010154146103a0576040517f08c379a0000000000000000000000000000000000000000000000000000000008152600401610397906112f4565b60405180910390fd5b60008390503373ffffffffffffffffffffffffffffffffffffffff168173ffffffffffffffffffffffffffffffffffffffff16636352211e856040518263ffffffff1660e01b81526004016103f59190611175565b602060405180830381865afa158015610412573d6000803e3d6000fd5b505050506040513d601f19601f820116820180604052508101906104369190611329565b73ffffffffffffffffffffffffffffffffffffffff161461048c576040517f08c379a0000000000000000000000000000000000000000000000000000000008152600401610483906113a2565b60405180910390fd5b8073ffffffffffffffffffffffffffffffffffffffff166342842e0e3330866040518463ffffffff1660e01b81526004016104c9939291906113c2565b600060405180830381600087803b1580156104e357600080fd5b505af11580156104f7573d6000803e3d6000fd5b5050505060405180604001604052803373ffffffffffffffffffffffffffffffffffffffff16815260200183815250600360008673ffffffffffffffffffffffffffffffffffffffff1673ffffffffffffffffffffffffffffffffffffffff168152602001908152602001600020600085815260200190815260200160002060008201518160000160006101000a81548173ffffffffffffffffffffffffffffffffffffffff021916908373ffffffffffffffffffffffffffffffffffffffff16021790555060208201518160010155905050506105d3610efb565b505050565b6000600160009054906101000a900473ffffffffffffffffffffffffffffffffffffffff16905090565b61060a610eac565b6000600360008473ffffffffffffffffffffffffffffffffffffffff1673ffffffffffffffffffffffffffffffffffffffff16815260200190815260200160002060008381526020019081526020016000206040518060400160405290816000820160009054906101000a900473ffffffffffffffffffffffffffffffffffffffff1673ffffffffffffffffffffffffffffffffffffffff1673ffffffffffffffffffffffffffffffffffffffff16815260200160018201548152505090506000816020015111610710576040517f08c379a000000000000000000000000000000000000000000000000000000000815260040161070790611445565b60405180910390fd5b80602001513414610756576040517f08c379a000000000000000000000000000000000000000000000000000000000815260040161074d906114b1565b60405180910390fd5b600360008473ffffffffffffffffffffffffffffffffffffffff1673ffffffffffffffffffffffffffffffffffffffff1681526020019081526020016000206000838152602001908152602001600020600080820160006101000a81549073ffffffffffffffffffffffffffffffffffffffff0219169055600182016000905550506000612710600254346107eb9190611500565b6107f59190611571565b90506000813461080591906115a2565b90506000808673ffffffffffffffffffffffffffffffffffffffff166301ffc9a77f2a55205a000000000000000000000000000000000000000000000000000000006040518263ffffffff1660e01b8152600401610863919061115a565b602060405180830381865afa158015610880573d6000803e3d6000fd5b505050506040513d601f19601f820116820180604052508101906108a4919061160e565b1561092d578673ffffffffffffffffffffffffffffffffffffffff16632a55205a87346040518363ffffffff1660e01b81526004016108e492919061163b565b6040805180830381865afa158015610900573d6000803e3d6000fd5b505050506040513d601f19601f820116820180604052508101906109249190611679565b80935081925050505b6000828461093b91906115a2565b9050600083111561098e578173ffffffffffffffffffffffffffffffffffffffff166108fc849081150290604051600060405180830381858888f1935050505015801561098c573d6000803e3d6000fd5b505b856000015173ffffffffffffffffffffffffffffffffffffffff166108fc829081150290604051600060405180830381858888f193505050501580156109d8573d6000803e3d6000fd5b506109e16105d8565b73ffffffffffffffffffffffffffffffffffffffff166108fc869081150290604051600060405180830381858888f19350505050158015610a26573d6000803e3d6000fd5b508773ffffffffffffffffffffffffffffffffffffffff166342842e0e30338a6040518463ffffffff1660e01b8152600401610a64939291906113c2565b600060405180830381600087803b158015610a7e57600080fd5b505af1158015610a92573d6000803e3d6000fd5b50505050505050505050610aa4610efb565b5050565b610ab0610eac565b6000600360008473ffffffffffffffffffffffffffffffffffffffff1673ffffffffffffffffffffffffffffffffffffffff16815260200190815260200160002060008381526020019081526020016000206040518060400160405290816000820160009054906101000a900473ffffffffffffffffffffffffffffffffffffffff1673ffffffffffffffffffffffffffffffffffffffff1673ffffffffffffffffffffffffffffffffffffffff16815260200160018201548152505090503373ffffffffffffffffffffffffffffffffffffffff16816000015173ffffffffffffffffffffffffffffffffffffffff1614610be1576040517f08c379a0000000000000000000000000000000000000000000000000000000008152600401610bd890611705565b60405180910390fd5b600360008473ffffffffffffffffffffffffffffffffffffffff1673ffffffffffffffffffffffffffffffffffffffff1681526020019081526020016000206000838152602001908152602001600020600080820160006101000a81549073ffffffffffffffffffffffffffffffffffffffff0219169055600182016000905550508273ffffffffffffffffffffffffffffffffffffffff166342842e0e3033856040518463ffffffff1660e01b8152600401610ca0939291906113c2565b600060405180830381600087803b158015610cba57600080fd5b505af1158015610cce573d6000803e3d6000fd5b5050505050610cdb610efb565b5050565b6103e881565b610ced610d68565b600073ffffffffffffffffffffffffffffffffffffffff168173ffffffffffffffffffffffffffffffffffffffff1603610d5c576040517f08c379a0000000000000000000000000000000000000000000000000000000008152600401610d5390611797565b60405180910390fd5b610d6581610de6565b50565b610d70610f05565b73ffffffffffffffffffffffffffffffffffffffff16610d8e6105d8565b73ffffffffffffffffffffffffffffffffffffffff1614610de4576040517f08c379a0000000000000000000000000000000000000000000000000000000008152600401610ddb90611803565b60405180910390fd5b565b6000600160009054906101000a900473ffffffffffffffffffffffffffffffffffffffff16905081600160006101000a81548173ffffffffffffffffffffffffffffffffffffffff021916908373ffffffffffffffffffffffffffffffffffffffff1602179055508173ffffffffffffffffffffffffffffffffffffffff168173ffffffffffffffffffffffffffffffffffffffff167f8be0079c531659141344cd1fd0a4f28419497f9722a3daafe3b4186f6b6457e060405160405180910390a35050565b600260005403610ef1576040517f08c379a0000000000000000000000000000000000000000000000000000000008152600401610ee89061186f565b60405180910390fd5b6002600081905550565b6001600081905550565b600033905090565b600080fd5b600080fd5b600073ffffffffffffffffffffffffffffffffffffffff82169050919050565b6000610f4282610f17565b9050919050565b610f5281610f37565b8114610f5d57600080fd5b50565b600081359050610f6f81610f49565b92915050565b6000819050919050565b610f8881610f75565b8114610f9357600080fd5b50565b600081359050610fa581610f7f565b92915050565b60008060408385031215610fc257610fc1610f0d565b5b6000610fd085828601610f60565b9250506020610fe185828601610f96565b9150509250929050565b610ff481610f37565b82525050565b61100381610f75565b82525050565b600060408201905061101e6000830185610feb565b61102b6020830184610ffa565b9392505050565b600080fd5b600080fd5b600080fd5b60008083601f84011261105757611056611032565b5b8235905067ffffffffffffffff81111561107457611073611037565b5b6020830191508360018202830111156110905761108f61103c565b5b9250929050565b6000806000806000608086880312156110b3576110b2610f0d565b5b60006110c188828901610f60565b95505060206110d288828901610f60565b94505060406110e388828901610f96565b935050606086013567ffffffffffffffff81111561110457611103610f12565b5b61111088828901611041565b92509250509295509295909350565b60007fffffffff0000000000000000000000000000000000000000000000000000000082169050919050565b6111548161111f565b82525050565b600060208201905061116f600083018461114b565b92915050565b600060208201905061118a6000830184610ffa565b92915050565b6000806000606084860312156111a9576111a8610f0d565b5b60006111b786828701610f60565b93505060206111c886828701610f96565b92505060406111d986828701610f96565b9150509250925092565b60006020820190506111f86000830184610feb565b92915050565b60006020828403121561121457611213610f0d565b5b600061122284828501610f60565b91505092915050565b600082825260208201905092915050565b7f5072696365207a65726f00000000000000000000000000000000000000000000600082015250565b6000611272600a8361122b565b915061127d8261123c565b602082019050919050565b600060208201905081810360008301526112a181611265565b9050919050565b7f416c7265616479206c6973746564000000000000000000000000000000000000600082015250565b60006112de600e8361122b565b91506112e9826112a8565b602082019050919050565b6000602082019050818103600083015261130d816112d1565b9050919050565b60008151905061132381610f49565b92915050565b60006020828403121561133f5761133e610f0d565b5b600061134d84828501611314565b91505092915050565b7f4e6f74206f776e65720000000000000000000000000000000000000000000000600082015250565b600061138c60098361122b565b915061139782611356565b602082019050919050565b600060208201905081810360008301526113bb8161137f565b9050919050565b60006060820190506113d76000830186610feb565b6113e46020830185610feb565b6113f16040830184610ffa565b949350505050565b7f4e6f74206c697374656400000000000000000000000000000000000000000000600082015250565b600061142f600a8361122b565b915061143a826113f9565b602082019050919050565b6000602082019050818103600083015261145e81611422565b9050919050565b7f57726f6e67204554480000000000000000000000000000000000000000000000600082015250565b600061149b60098361122b565b91506114a682611465565b602082019050919050565b600060208201905081810360008301526114ca8161148e565b9050919050565b7f4e487b7100000000000000000000000000000000000000000000000000000000600052601160045260246000fd5b600061150b82610f75565b915061151683610f75565b925082820261152481610f75565b9150828204841483151761153b5761153a6114d1565b5b5092915050565b7f4e487b7100000000000000000000000000000000000000000000000000000000600052601260045260246000fd5b600061157c82610f75565b915061158783610f75565b92508261159757611596611542565b5b828204905092915050565b60006115ad82610f75565b91506115b883610f75565b92508282039050818111156115d0576115cf6114d1565b5b92915050565b60008115159050919050565b6115eb816115d6565b81146115f657600080fd5b50565b600081519050611608816115e2565b92915050565b60006020828403121561162457611623610f0d565b5b6000611632848285016115f9565b91505092915050565b60006040820190506116506000830185610ffa565b61165d6020830184610ffa565b9392505050565b60008151905061167381610f7f565b92915050565b600080604083850312156116905761168f610f0d565b5b600061169e85828601611314565b92505060206116af85828601611664565b9150509250929050565b7f4e6f742073656c6c657200000000000000000000000000000000000000000000600082015250565b60006116ef600a8361122b565b91506116fa826116b9565b602082019050919050565b6000602082019050818103600083015261171e816116e2565b9050919050565b7f4f776e61626c653a206e6577206f776e657220697320746865207a65726f206160008201527f6464726573730000000000000000000000000000000000000000000000000000602082015250565b600061178160268361122b565b915061178c82611725565b604082019050919050565b600060208201905081810360008301526117b081611774565b9050919050565b7f4f776e61626c653a2063616c6c6572206973206e6f7420746865206f776e6572600082015250565b60006117ed60208361122b565b91506117f8826117b7565b602082019050919050565b6000602082019050818103600083015261181c816117e0565b9050919050565b7f5265656e7472616e637947756172643a207265656e7472616e742063616c6c00600082015250565b6000611859601f8361122b565b915061186482611823565b602082019050919050565b600060208201905081810360008301526118888161184c565b905091905056fea2646970667358221220e5a383a1d556f19fef90af9bed72601668e7d7d7bffc29e4a376b58199d9c64a64736f6c63430008140033",
  "linkReferences": {},
  "deployedLinkReferences": {}
}