{
  "_format": "hh-sol-artifact-1",
  "contractName": "GalleryAuction",
  "sourceName": "contracts/Auction.sol",
  "abi": [
    {
      "inputs": [
        {
          "internalType": "uint256",
          "name": "_marketplaceFee",
          "type": "uint256"
        }
      ],
      "stateMutability": "nonpayable",
      "type": "constructor"
    },
    {
      "anonymous": false,
      "inputs": [
        {
          "indexed": true,
          "internalType": "uint256",
          "name": "auctionId",
          "type": "uint256"
        }
      ],
      "name": "AuctionCanceled",
      "type": "event"
    },
    {
      "anonymous": false,
      "inputs": [
        {
          "indexed": true,
          "internalType": "uint256",
          "name": "auctionId",
          "type": "uint256"
        },
        {
          "indexed": true,
          "internalType": "address",
          "name": "seller",
          "type": "address"
        },
        {
          "indexed": true,
          "internalType": "address",
          "name": "nft",
          "type": "address"
        },
        {
          "indexed": false,
          "internalType": "uint256",
          "name": "tokenId",
          "type": "uint256"
        },
        {
          "indexed": false,
          "internalType": "uint256",
          "name": "startPrice",
          "type": "uint256"
        },
        {
          "indexed": false,
          "internalType": "uint256",
          "name": "endTime",
          "type": "uint256"
        }
      ],
      "name": "AuctionCreated",
      "type": "event"
    },
    {
      "anonymous": false,
      "inputs": [
        {
          "indexed": true,
          "internalType": "uint256",
          "name": "auctionId",
          "type": "uint256"
        },
        {
          "indexed": false,
          "internalType": "address",
          "name": "winner",
          "type": "address"
        },
        {
          "indexed": false,
          "internalType": "uint256",
          "name": "amount",
          "type": "uint256"
        }
      ],
      "name": "AuctionSettled",
      "type": "event"
    },
    {
      "anonymous": false,
      "inputs": [
        {
          "indexed": true,
          "internalType": "uint256",
          "name": "auctionId",
          "type": "uint256"
        },
        {
          "indexed": true,
          "internalType": "address",
          "name": "bidder",
          "type": "address"
        },
        {
          "indexed": false,
          "internalType": "uint256",
          "name": "amount",
          "type": "uint256"
        }
      ],
      "name": "BidPlaced",
      "type": "event"
    },
    {
      "anonymous": false,
      "inputs": [
        {
          "indexed": false,
          "internalType": "uint256",
          "name": "oldFee",
          "type": "uint256"
        },
        {
          "indexed": false,
          "internalType": "uint256",
          "name": "newFee",
          "type": "uint256"
        }
      ],
      "name": "MarketplaceFeeUpdated",
      "type": "event"
    },
    {
      "anonymous": false,
      "inputs": [
        {
          "indexed": true,
          "internalType": "address",
          "name": "previousOwner",
          "type": "address"
        },
        {
          "indexed": true,
          "internalType": "address",
          "name": "newOwner",
          "type": "address"
        }
      ],
      "name": "OwnershipTransferred",
      "type": "event"
    },
    {
      "anonymous": false,
      "inputs": [
        {
          "indexed": false,
          "internalType": "address",
          "name": "account",
          "type": "address"
        }
      ],
      "name": "Paused",
      "type": "event"
    },
    {
      "anonymous": false,
      "inputs": [
        {
          "indexed": false,
          "internalType": "address",
          "name": "account",
          "type": "address"
        }
      ],
      "name": "Unpaused",
      "type": "event"
    },
    {
      "anonymous": false,
      "inputs": [
        {
          "indexed": true,
          "internalType": "address",
          "name": "user",
          "type": "address"
        },
        {
          "indexed": false,
          "internalType": "uint256",
          "name": "amount",
          "type": "uint256"
        }
      ],
      "name": "Withdrawal",
      "type": "event"
    },
    {
      "inputs": [],
      "name": "MAX_FEE",
      "outputs": [
        {
          "internalType": "uint256",
          "name": "",
          "type": "uint256"
        }
      ],
      "stateMutability": "view",
      "type": "function"
    },
    {
      "inputs": [],
      "name": "auctionCounter",
      "outputs": [
        {
          "internalType": "uint256",
          "name": "",
          "type": "uint256"
        }
      ],
      "stateMutability": "view",
      "type": "function"
    },
    {
      "inputs": [
        {
          "internalType": "uint256",
          "name": "",
          "type": "uint256"
        }
      ],
      "name": "auctions",
      "outputs": [
        {
          "internalType": "address",
          "name": "seller",
          "type": "address"
        },
        {
          "internalType": "address",
          "name": "nft",
          "type": "address"
        },
        {
          "internalType": "uint256",
          "name": "tokenId",
          "type": "uint256"
        },
        {
          "internalType": "uint256",
          "name": "startPrice",
          "type": "uint256"
        },
        {
          "internalType": "uint256",
          "name": "highestBid",
          "type": "uint256"
        },
        {
          "internalType": "address",
          "name": "highestBidder",
          "type": "address"
        },
        {
          "internalType": "uint64",
          "name": "endTime",
          "type": "uint64"
        },
        {
          "internalType": "bool",
          "name": "settled",
          "type": "bool"
        }
      ],
      "stateMutability": "view",
      "type": "function"
    },
    {
      "inputs": [
        {
          "internalType": "uint256",
          "name": "auctionId",
          "type": "uint256"
        }
      ],
      "name": "bid",
      "outputs": [],
      "stateMutability": "payable",
      "type": "function"
    },
    {
      "inputs": [
        {
          "internalType": "address",
          "name": "nft",
          "type": "address"
        },
        {
          "internalType": "uint256",
          "name": "tokenId",
          "type": "uint256"
        },
        {
          "internalType": "uint256",
          "name": "startPrice",
          "type": "uint256"
        },
        {
          "internalType": "uint256",
          "name": "duration",
          "type": "uint256"
        }
      ],
      "name": "createAuction",
      "outputs": [],
      "stateMutability": "nonpayable",
      "type": "function"
    },
    {
      "inputs": [],
      "name": "marketplaceFee",
      "outputs": [
        {
          "internalType": "uint256",
          "name": "",
          "type": "uint256"
        }
      ],
      "stateMutability": "view",
      "type": "function"
    },
    {
      "inputs": [
        {
          "internalType": "address",
          "name": "",
          "type": "address"
        },
        {
          "internalType": "uint256",
          "name": "",
          "type": "uint256"
        }
      ],
      "name": "nftInAuction",
      "outputs": [
        {
          "internalType": "bool",
          "name": "",
          "type": "bool"
        }
      ],
      "stateMutability": "view",
      "type": "function"
    },
    {
      "inputs": [
        {
          "internalType": "address",
          "name": "",
          "type": "address"
        },
        {
          "internalType": "address",
          "name": "",
          "type": "address"
        },
        {
          "internalType": "uint256",
          "name": "",
          "type": "uint256"
        },
        {
          "internalType": "bytes",
          "name": "",
          "type": "bytes"
        }
      ],
      "name": "onERC721Received",
      "outputs": [
        {
          "internalType": "bytes4",
          "name": "",
          "type": "bytes4"
        }
      ],
      "stateMutability": "pure",
      "type": "function"
    },
    {
      "inputs": [],
      "name": "owner",
      "outputs": [
        {
          "internalType": "address",
          "name": "",
          "type": "address"
        }
      ],
      "stateMutability": "view",
      "type": "function"
    },
    {
      "inputs": [],
      "name": "pause",
      "outputs": [],
      "stateMutability": "nonpayable",
      "type": "function"
    },
    {
      "inputs": [],
      "name": "paused",
      "outputs": [
        {
          "internalType": "bool",
          "name": "",
          "type": "bool"
        }
      ],
      "stateMutability": "view",
      "type": "function"
    },
    {
      "inputs": [
        {
          "internalType": "address",
          "name": "",
          "type": "address"
        }
      ],
      "name": "pendingReturns",
      "outputs": [
        {
          "internalType": "uint256",
          "name": "",
          "type": "uint256"
        }
      ],
      "stateMutability": "view",
      "type": "function"
    },
    {
      "inputs": [],
      "name": "renounceOwnership",
      "outputs": [],
      "stateMutability": "nonpayable",
      "type": "function"
    },
    {
      "inputs": [
        {
          "internalType": "uint256",
          "name": "newFee",
          "type": "uint256"
        }
      ],
      "name": "setMarketplaceFee",
      "outputs": [],
      "stateMutability": "nonpayable",
      "type": "function"
    },
    {
      "inputs": [
        {
          "internalType": "uint256",
          "name": "auctionId",
          "type": "uint256"
        }
      ],
      "name": "settleAuction",
      "outputs": [],
      "stateMutability": "nonpayable",
      "type": "function"
    },
    {
      "inputs": [
        {
          "internalType": "address",
          "name": "newOwner",
          "type": "address"
        }
      ],
      "name": "transferOwnership",
      "outputs": [],
      "stateMutability": "nonpayable",
      "type": "function"
    },
    {
      "inputs": [],
      "name": "unpause",
      "outputs": [],
      "stateMutability": "nonpayable",
      "type": "function"
    },
    {
      "inputs": [],
      "name": "withdraw",
      "outputs": [],
      "stateMutability": "nonpayable",
      "type": "function"
    }
  ],
  "bytecode": "0x60806040523480156200001157600080fd5b5060405162002dda38038062002dda8339818101604052810190620000379190620001de565b60016000819055506200005f62000053620000d060201b60201c565b620000d860201b60201c565b6000600160146101000a81548160ff0219169083151502179055506103e8811115620000c2576040517f08c379a0000000000000000000000000000000000000000000000000000000008152600401620000b99062000271565b60405180910390fd5b806002819055505062000293565b600033905090565b6000600160009054906101000a900473ffffffffffffffffffffffffffffffffffffffff16905081600160006101000a81548173ffffffffffffffffffffffffffffffffffffffff021916908373ffffffffffffffffffffffffffffffffffffffff1602179055508173ffffffffffffffffffffffffffffffffffffffff168173ffffffffffffffffffffffffffffffffffffffff167f8be0079c531659141344cd1fd0a4f28419497f9722a3daafe3b4186f6b6457e060405160405180910390a35050565b600080fd5b6000819050919050565b620001b881620001a3565b8114620001c457600080fd5b50565b600081519050620001d881620001ad565b92915050565b600060208284031215620001f757620001f66200019e565b5b60006200020784828501620001c7565b91505092915050565b600082825260208201905092915050565b7f46656520746f6f20686967680000000000000000000000000000000000000000600082015250565b600062000259600c8362000210565b9150620002668262000221565b602082019050919050565b600060208201905081810360008301526200028c816200024a565b9050919050565b612b3780620002a36000396000f3fe6080604052600436106101095760003560e01c806361beb1d7116100955780638da5cb5b116100645780638da5cb5b146103295780639407ea9814610354578063a7e766441461037d578063bc063e1a146103a8578063f2fde38b146103d357610109565b806361beb1d7146102a75780636a166964146102d0578063715018a6146102fb5780638456cb591461031257610109565b80633ccfd60b116100dc5780633ccfd60b146101ee5780633f4ba83a14610205578063454a2ab31461021c578063571a26a0146102385780635c975abb1461027c57610109565b8063150b7a021461010e57806321dfd41a1461014b57806326b387bb146101885780632e993611146101c5575b600080fd5b34801561011a57600080fd5b5061013560048036038101906101309190611cb1565b6103fc565b6040516101429190611d74565b60405180910390f35b34801561015757600080fd5b50610172600480360381019061016d9190611d8f565b610411565b60405161017f9190611dea565b60405180910390f35b34801561019457600080fd5b506101af60048036038101906101aa9190611e05565b610440565b6040516101bc9190611e41565b60405180910390f35b3480156101d157600080fd5b506101ec60048036038101906101e79190611e5c565b610458565b005b3480156101fa57600080fd5b50610203610bf0565b005b34801561021157600080fd5b5061021a610dca565b005b61023660048036038101906102319190611e5c565b610ddc565b005b34801561024457600080fd5b5061025f600480360381019061025a9190611e5c565b6110c8565b604051610273989796959493929190611ebb565b60405180910390f35b34801561028857600080fd5b50610291611191565b60405161029e9190611dea565b60405180910390f35b3480156102b357600080fd5b506102ce60048036038101906102c99190611f39565b6111a8565b005b3480156102dc57600080fd5b506102e5611734565b6040516102f29190611e41565b60405180910390f35b34801561030757600080fd5b5061031061173a565b005b34801561031e57600080fd5b5061032761174e565b005b34801561033557600080fd5b5061033e611760565b60405161034b9190611fa0565b60405180910390f35b34801561036057600080fd5b5061037b60048036038101906103769190611e5c565b61178a565b005b34801561038957600080fd5b50610392611822565b60405161039f9190611e41565b60405180910390f35b3480156103b457600080fd5b506103bd611828565b6040516103ca9190611e41565b60405180910390f35b3480156103df57600080fd5b506103fa60048036038101906103f59190611e05565b61182e565b005b600063150b7a0260e01b905095945050505050565b60056020528160005260406000206020528060005260406000206000915091509054906101000a900460ff1681565b60066020528060005260406000206000915090505481565b6104606118b1565b6104686118fb565b600060046000838152602001908152602001600020905080600501601c9054906101000a900460ff16156104d1576040517f08c379a00000000000000000000000000000000000000000000000000000000081526004016104c890612018565b60405180910390fd5b8060050160149054906101000a900467ffffffffffffffff1667ffffffffffffffff16421015610536576040517f08c379a000000000000000000000000000000000000000000000000000000000815260040161052d90612084565b60405180910390fd5b600181600501601c6101000a81548160ff0219169083151502179055506000600560008360010160009054906101000a900473ffffffffffffffffffffffffffffffffffffffff1673ffffffffffffffffffffffffffffffffffffffff1673ffffffffffffffffffffffffffffffffffffffff16815260200190815260200160002060008360020154815260200190815260200160002060006101000a81548160ff021916908315150217905550600073ffffffffffffffffffffffffffffffffffffffff168160050160009054906101000a900473ffffffffffffffffffffffffffffffffffffffff1673ffffffffffffffffffffffffffffffffffffffff160361072a578060010160009054906101000a900473ffffffffffffffffffffffffffffffffffffffff1673ffffffffffffffffffffffffffffffffffffffff166342842e0e308360000160009054906101000a900473ffffffffffffffffffffffffffffffffffffffff1684600201546040518463ffffffff1660e01b81526004016106c5939291906120a4565b600060405180830381600087803b1580156106df57600080fd5b505af11580156106f3573d6000803e3d6000fd5b50505050817f28601d865dccc9f113e15a7185c1b38c085d598c71250d3337916a428536d77160405160405180910390a250610be5565b600081600401549050600061271060025483610746919061210a565b610750919061217b565b90506000818361076091906121ac565b90506000808560010160009054906101000a900473ffffffffffffffffffffffffffffffffffffffff1673ffffffffffffffffffffffffffffffffffffffff166301ffc9a77f2a55205a000000000000000000000000000000000000000000000000000000006040518263ffffffff1660e01b81526004016107e29190611d74565b602060405180830381865afa1580156107ff573d6000803e3d6000fd5b505050506040513d601f19601f82011682018060405250810190610823919061220c565b156109ea578560010160009054906101000a900473ffffffffffffffffffffffffffffffffffffffff1673ffffffffffffffffffffffffffffffffffffffff16632a55205a8760020154876040518363ffffffff1660e01b815260040161088b929190612239565b6040805180830381865afa1580156108a7573d6000803e3d6000fd5b505050506040513d601f19601f820116820180604052508101906108cb919061228c565b8093508192505050600073ffffffffffffffffffffffffffffffffffffffff168173ffffffffffffffffffffffffffffffffffffffff1603610942576040517f08c379a000000000000000000000000000000000000000000000000000000000815260040161093990612318565b60405180910390fd5b82821115610985576040517f08c379a000000000000000000000000000000000000000000000000000000000815260040161097c90612384565b60405180910390fd5b81600660008373ffffffffffffffffffffffffffffffffffffffff1673ffffffffffffffffffffffffffffffffffffffff16815260200190815260200160002060008282546109d491906123a4565b9250508190555081836109e791906121ac565b92505b82600660008860000160009054906101000a900473ffffffffffffffffffffffffffffffffffffffff1673ffffffffffffffffffffffffffffffffffffffff1673ffffffffffffffffffffffffffffffffffffffff1681526020019081526020016000206000828254610a5d91906123a4565b925050819055508360066000610a71611760565b73ffffffffffffffffffffffffffffffffffffffff1673ffffffffffffffffffffffffffffffffffffffff1681526020019081526020016000206000828254610aba91906123a4565b925050819055508560010160009054906101000a900473ffffffffffffffffffffffffffffffffffffffff1673ffffffffffffffffffffffffffffffffffffffff166342842e0e308860050160009054906101000a900473ffffffffffffffffffffffffffffffffffffffff1689600201546040518463ffffffff1660e01b8152600401610b4a939291906120a4565b600060405180830381600087803b158015610b6457600080fd5b505af1158015610b78573d6000803e3d6000fd5b50505050867fc9f72b276a388619c6d185d146697036241880c36654b1a3ffdad07c24038d998760050160009054906101000a900473ffffffffffffffffffffffffffffffffffffffff168860040154604051610bd69291906123d8565b60405180910390a25050505050505b610bed61194a565b50565b610bf86118fb565b6000600660003373ffffffffffffffffffffffffffffffffffffffff1673ffffffffffffffffffffffffffffffffffffffff16815260200190815260200160002054905060008111610c7f576040517f08c379a0000000000000000000000000000000000000000000000000000000008152600401610c769061244d565b60405180910390fd5b6000600660003373ffffffffffffffffffffffffffffffffffffffff1673ffffffffffffffffffffffffffffffffffffffff1681526020019081526020016000208190555060003373ffffffffffffffffffffffffffffffffffffffff1682604051610cea9061249e565b60006040518083038185875af1925050503d8060008114610d27576040519150601f19603f3d011682016040523d82523d6000602084013e610d2c565b606091505b5050905080610d70576040517f08c379a0000000000000000000000000000000000000000000000000000000008152600401610d67906124ff565b60405180910390fd5b3373ffffffffffffffffffffffffffffffffffffffff167f7fcf532c15f0a6db0bd6d0e038bea71d30d808c7d98cb3bf7268a95bf5081b6583604051610db69190611e41565b60405180910390a25050610dc861194a565b565b610dd2611954565b610dda6119d2565b565b610de46118b1565b610dec6118fb565b60006004600083815260200190815260200160002090508060050160149054906101000a900467ffffffffffffffff1667ffffffffffffffff164210610e67576040517f08c379a0000000000000000000000000000000000000000000000000000000008152600401610e5e9061256b565b60405180910390fd5b80600501601c9054906101000a900460ff1615610eb9576040517f08c379a0000000000000000000000000000000000000000000000000000000008152600401610eb090612018565b60405180910390fd5b600060148260040154610ecc919061217b565b905060008103610edb57600190505b600080836004015414610efd57818360040154610ef891906123a4565b610f03565b82600301545b905080341015610f48576040517f08c379a0000000000000000000000000000000000000000000000000000000008152600401610f3f906125d7565b60405180910390fd5b600073ffffffffffffffffffffffffffffffffffffffff168360050160009054906101000a900473ffffffffffffffffffffffffffffffffffffffff1673ffffffffffffffffffffffffffffffffffffffff161461101f578260040154600660008560050160009054906101000a900473ffffffffffffffffffffffffffffffffffffffff1673ffffffffffffffffffffffffffffffffffffffff1673ffffffffffffffffffffffffffffffffffffffff168152602001908152602001600020600082825461101791906123a4565b925050819055505b348360040181905550338360050160006101000a81548173ffffffffffffffffffffffffffffffffffffffff021916908373ffffffffffffffffffffffffffffffffffffffff1602179055503373ffffffffffffffffffffffffffffffffffffffff16847f0e54eff26401bf69b81b26f60bd85ef47f5d85275c1d268d84f68d6897431c47346040516110b29190611e41565b60405180910390a35050506110c561194a565b50565b60046020528060005260406000206000915090508060000160009054906101000a900473ffffffffffffffffffffffffffffffffffffffff16908060010160009054906101000a900473ffffffffffffffffffffffffffffffffffffffff16908060020154908060030154908060040154908060050160009054906101000a900473ffffffffffffffffffffffffffffffffffffffff16908060050160149054906101000a900467ffffffffffffffff169080600501601c9054906101000a900460ff16905088565b6000600160149054906101000a900460ff16905090565b6111b06118b1565b6111b86118fb565b600082116111fb576040517f08c379a00000000000000000000000000000000000000000000000000000000081526004016111f290612643565b60405180910390fd5b610e10811015611240576040517f08c379a0000000000000000000000000000000000000000000000000000000008152600401611237906126af565b60405180910390fd5b600560008573ffffffffffffffffffffffffffffffffffffffff1673ffffffffffffffffffffffffffffffffffffffff168152602001908152602001600020600084815260200190815260200160002060009054906101000a900460ff16156112de576040517f08c379a00000000000000000000000000000000000000000000000000000000081526004016112d59061271b565b60405180910390fd5b60008490503373ffffffffffffffffffffffffffffffffffffffff168173ffffffffffffffffffffffffffffffffffffffff16636352211e866040518263ffffffff1660e01b81526004016113339190611e41565b602060405180830381865afa158015611350573d6000803e3d6000fd5b505050506040513d601f19601f82011682018060405250810190611374919061273b565b73ffffffffffffffffffffffffffffffffffffffff16146113ca576040517f08c379a00000000000000000000000000000000000000000000000000000000081526004016113c1906127b4565b60405180910390fd5b8073ffffffffffffffffffffffffffffffffffffffff166342842e0e3330876040518463ffffffff1660e01b8152600401611407939291906120a4565b600060405180830381600087803b15801561142157600080fd5b505af1158015611435573d6000803e3d6000fd5b505050506003600081548092919061144c906127d4565b9190505550600060035490506040518061010001604052803373ffffffffffffffffffffffffffffffffffffffff1681526020018773ffffffffffffffffffffffffffffffffffffffff16815260200186815260200185815260200160008152602001600073ffffffffffffffffffffffffffffffffffffffff16815260200184426114d891906123a4565b67ffffffffffffffff168152602001600015158152506004600083815260200190815260200160002060008201518160000160006101000a81548173ffffffffffffffffffffffffffffffffffffffff021916908373ffffffffffffffffffffffffffffffffffffffff16021790555060208201518160010160006101000a81548173ffffffffffffffffffffffffffffffffffffffff021916908373ffffffffffffffffffffffffffffffffffffffff16021790555060408201518160020155606082015181600301556080820151816004015560a08201518160050160006101000a81548173ffffffffffffffffffffffffffffffffffffffff021916908373ffffffffffffffffffffffffffffffffffffffff16021790555060c08201518160050160146101000a81548167ffffffffffffffff021916908367ffffffffffffffff16021790555060e082015181600501601c6101000a81548160ff0219169083151502179055509050506001600560008873ffffffffffffffffffffffffffffffffffffffff1673ffffffffffffffffffffffffffffffffffffffff168152602001908152602001600020600087815260200190815260200160002060006101000a81548160ff0219169083151502179055508573ffffffffffffffffffffffffffffffffffffffff163373ffffffffffffffffffffffffffffffffffffffff16827f06b9e486c68303eb64052e0493f906f3d93a1b7149b6b8dcff221aebd16c35138888884261170d91906123a4565b60405161171c9392919061281c565b60405180910390a4505061172e61194a565b50505050565b60025481565b611742611954565b61174c6000611a35565b565b611756611954565b61175e611afb565b565b6000600160009054906101000a900473ffffffffffffffffffffffffffffffffffffffff16905090565b611792611954565b6103e88111156117d7576040517f08c379a00000000000000000000000000000000000000000000000000000000081526004016117ce9061289f565b60405180910390fd5b60006002549050816002819055507f936008f1e981d6f48d4a529714c27d74d644750a1d215451212ce0f2476f2fbc8183604051611816929190612239565b60405180910390a15050565b60035481565b6103e881565b611836611954565b600073ffffffffffffffffffffffffffffffffffffffff168173ffffffffffffffffffffffffffffffffffffffff16036118a5576040517f08c379a000000000000000000000000000000000000000000000000000000000815260040161189c90612931565b60405180910390fd5b6118ae81611a35565b50565b6118b9611191565b156118f9576040517f08c379a00000000000000000000000000000000000000000000000000000000081526004016118f09061299d565b60405180910390fd5b565b600260005403611940576040517f08c379a000000000000000000000000000000000000000000000000000000000815260040161193790612a09565b60405180910390fd5b6002600081905550565b6001600081905550565b61195c611b5d565b73ffffffffffffffffffffffffffffffffffffffff1661197a611760565b73ffffffffffffffffffffffffffffffffffffffff16146119d0576040517f08c379a00000000000000000000000000000000000000000000000000000000081526004016119c790612a75565b60405180910390fd5b565b6119da611b65565b6000600160146101000a81548160ff0219169083151502179055507f5db9ee0a495bf2e6ff9c91a7834c1ba4fdd244a5e8aa4e537bd38aeae4b073aa611a1e611b5d565b604051611a2b9190611fa0565b60405180910390a1565b6000600160009054906101000a900473ffffffffffffffffffffffffffffffffffffffff16905081600160006101000a81548173ffffffffffffffffffffffffffffffffffffffff021916908373ffffffffffffffffffffffffffffffffffffffff1602179055508173ffffffffffffffffffffffffffffffffffffffff168173ffffffffffffffffffffffffffffffffffffffff167f8be0079c531659141344cd1fd0a4f28419497f9722a3daafe3b4186f6b6457e060405160405180910390a35050565b611b036118b1565b60018060146101000a81548160ff0219169083151502179055507f62e78cea01bee320cd4e420270b5ea74000d11b0c9f74754ebdbfc544b05a258611b46611b5d565b604051611b539190611fa0565b60405180910390a1565b600033905090565b611b6d611191565b611bac576040517f08c379a0000000000000000000000000000000000000000000000000000000008152600401611ba390612ae1565b60405180910390fd5b565b600080fd5b600080fd5b600073ffffffffffffffffffffffffffffffffffffffff82169050919050565b6000611be382611bb8565b9050919050565b611bf381611bd8565b8114611bfe57600080fd5b50565b600081359050611c1081611bea565b92915050565b6000819050919050565b611c2981611c16565b8114611c3457600080fd5b50565b600081359050611c4681611c20565b92915050565b600080fd5b600080fd5b600080fd5b60008083601f840112611c7157611c70611c4c565b5b8235905067ffffffffffffffff811115611c8e57611c8d611c51565b5b602083019150836001820283011115611caa57611ca9611c56565b5b9250929050565b600080600080600060808688031215611ccd57611ccc611bae565b5b6000611cdb88828901611c01565b9550506020611cec88828901611c01565b9450506040611cfd88828901611c37565b935050606086013567ffffffffffffffff811115611d1e57611d1d611bb3565b5b611d2a88828901611c5b565b92509250509295509295909350565b60007fffffffff0000000000000000000000000000000000000000000000000000000082169050919050565b611d6e81611d39565b82525050565b6000602082019050611d896000830184611d65565b92915050565b60008060408385031215611da657611da5611bae565b5b6000611db485828601611c01565b9250506020611dc585828601611c37565b9150509250929050565b60008115159050919050565b611de481611dcf565b82525050565b6000602082019050611dff6000830184611ddb565b92915050565b600060208284031215611e1b57611e1a611bae565b5b6000611e2984828501611c01565b91505092915050565b611e3b81611c16565b82525050565b6000602082019050611e566000830184611e32565b92915050565b600060208284031215611e7257611e71611bae565b5b6000611e8084828501611c37565b91505092915050565b611e9281611bd8565b82525050565b600067ffffffffffffffff82169050919050565b611eb581611e98565b82525050565b600061010082019050611ed1600083018b611e89565b611ede602083018a611e89565b611eeb6040830189611e32565b611ef86060830188611e32565b611f056080830187611e32565b611f1260a0830186611e89565b611f1f60c0830185611eac565b611f2c60e0830184611ddb565b9998505050505050505050565b60008060008060808587031215611f5357611f52611bae565b5b6000611f6187828801611c01565b9450506020611f7287828801611c37565b9350506040611f8387828801611c37565b9250506060611f9487828801611c37565b91505092959194509250565b6000602082019050611fb56000830184611e89565b92915050565b600082825260208201905092915050565b7f416c726561647920736574746c65640000000000000000000000000000000000600082015250565b6000612002600f83611fbb565b915061200d82611fcc565b602082019050919050565b6000602082019050818103600083015261203181611ff5565b9050919050565b7f41756374696f6e206e6f7420656e646564000000000000000000000000000000600082015250565b600061206e601183611fbb565b915061207982612038565b602082019050919050565b6000602082019050818103600083015261209d81612061565b9050919050565b60006060820190506120b96000830186611e89565b6120c66020830185611e89565b6120d36040830184611e32565b949350505050565b7f4e487b7100000000000000000000000000000000000000000000000000000000600052601160045260246000fd5b600061211582611c16565b915061212083611c16565b925082820261212e81611c16565b91508282048414831517612145576121446120db565b5b5092915050565b7f4e487b7100000000000000000000000000000000000000000000000000000000600052601260045260246000fd5b600061218682611c16565b915061219183611c16565b9250826121a1576121a061214c565b5b828204905092915050565b60006121b782611c16565b91506121c283611c16565b92508282039050818111156121da576121d96120db565b5b92915050565b6121e981611dcf565b81146121f457600080fd5b50565b600081519050612206816121e0565b92915050565b60006020828403121561222257612221611bae565b5b6000612230848285016121f7565b91505092915050565b600060408201905061224e6000830185611e32565b61225b6020830184611e32565b9392505050565b60008151905061227181611bea565b92915050565b60008151905061228681611c20565b92915050565b600080604083850312156122a3576122a2611bae565b5b60006122b185828601612262565b92505060206122c285828601612277565b9150509250929050565b7f496e76616c696420726f79616c74792072656365697665720000000000000000600082015250565b6000612302601883611fbb565b915061230d826122cc565b602082019050919050565b60006020820190508181036000830152612331816122f5565b9050919050565b7f526f79616c747920746f6f206869676800000000000000000000000000000000600082015250565b600061236e601083611fbb565b915061237982612338565b602082019050919050565b6000602082019050818103600083015261239d81612361565b9050919050565b60006123af82611c16565b91506123ba83611c16565b92508282019050808211156123d2576123d16120db565b5b92915050565b60006040820190506123ed6000830185611e89565b6123fa6020830184611e32565b9392505050565b7f4e6f7468696e6720746f20776974686472617700000000000000000000000000600082015250565b6000612437601383611fbb565b915061244282612401565b602082019050919050565b600060208201905081810360008301526124668161242a565b9050919050565b600081905092915050565b50565b600061248860008361246d565b915061249382612478565b600082019050919050565b60006124a98261247b565b9150819050919050565b7f455448207472616e73666572206661696c656400000000000000000000000000600082015250565b60006124e9601383611fbb565b91506124f4826124b3565b602082019050919050565b60006020820190508181036000830152612518816124dc565b9050919050565b7f41756374696f6e20656e64656400000000000000000000000000000000000000600082015250565b6000612555600d83611fbb565b91506125608261251f565b602082019050919050565b6000602082019050818103600083015261258481612548565b9050919050565b7f42696420746f6f206c6f77000000000000000000000000000000000000000000600082015250565b60006125c1600b83611fbb565b91506125cc8261258b565b602082019050919050565b600060208201905081810360008301526125f0816125b4565b9050919050565b7f5374617274207072696365207a65726f00000000000000000000000000000000600082015250565b600061262d601083611fbb565b9150612638826125f7565b602082019050919050565b6000602082019050818103600083015261265c81612620565b9050919050565b7f4475726174696f6e20746f6f2073686f72740000000000000000000000000000600082015250565b6000612699601283611fbb565b91506126a482612663565b602082019050919050565b600060208201905081810360008301526126c88161268c565b9050919050565b7f4e465420616c72656164792061756374696f6e65640000000000000000000000600082015250565b6000612705601583611fbb565b9150612710826126cf565b602082019050919050565b60006020820190508181036000830152612734816126f8565b9050919050565b60006020828403121561275157612750611bae565b5b600061275f84828501612262565b91505092915050565b7f4e6f74206f776e65720000000000000000000000000000000000000000000000600082015250565b600061279e600983611fbb565b91506127a982612768565b602082019050919050565b600060208201905081810360008301526127cd81612791565b9050919050565b60006127df82611c16565b91507fffffffffffffffffffffffffffffffffffffffffffffffffffffffffffffffff8203612811576128106120db565b5b600182019050919050565b60006060820190506128316000830186611e32565b61283e6020830185611e32565b61284b6040830184611e32565b949350505050565b7f46656520746f6f20686967680000000000000000000000000000000000000000600082015250565b6000612889600c83611fbb565b915061289482612853565b602082019050919050565b600060208201905081810360008301526128b88161287c565b9050919050565b7f4f776e61626c653a206e6577206f776e657220697320746865207a65726f206160008201527f6464726573730000000000000000000000000000000000000000000000000000602082015250565b600061291b602683611fbb565b9150612926826128bf565b604082019050919050565b6000602082019050818103600083015261294a8161290e565b9050919050565b7f5061757361626c653a2070617573656400000000000000000000000000000000600082015250565b6000612987601083611fbb565b915061299282612951565b602082019050919050565b600060208201905081810360008301526129b68161297a565b9050919050565b7f5265656e7472616e637947756172643a207265656e7472616e742063616c6c00600082015250565b60006129f3601f83611fbb565b91506129fe826129bd565b602082019050919050565b60006020820190508181036000830152612a22816129e6565b9050919050565b7f4f776e61626c653a2063616c6c6572206973206e6f7420746865206f776e6572600082015250565b6000612a5f602083611fbb565b9150612a6a82612a29565b602082019050919050565b60006020820190508181036000830152612a8e81612a52565b9050919050565b7f5061757361626c653a206e6f7420706175736564000000000000000000000000600082015250565b6000612acb601483611fbb565b9150612ad682612a95565b602082019050919050565b60006020820190508181036000830152612afa81612abe565b905091905056fea2646970667358221220d6222f31ede2788ce0cf10a20c58625044248dce554d9bb815c386f181a4a19064736f6c63430008140033",
  "linkReferences": {},
  "deployedLinkReferences": {}
}