{
  "_format": "hh-sol-artifact-1",
  "contractName": "GalleryNFT",
  "sourceName": "contracts/GalleryNFT.sol",
  "abi": [
    {
      "inputs": [
        {
          "internalType": "string",
          "name": "name_",
          "type": "string"
        },
        {
          "internalType": "string",
          "name": "symbol_",
          "type": "string"
        },
        {
          "internalType": "string",
          "name": "collectionURI_",
          "type": "string"
        },
        {
          "internalType": "uint96",
          "name": "royaltyFee_",
          "type": "uint96"
        },
        {
          "internalType": "uint256",
          "name": "mintFee_",
          "type": "uint256"
        },
        {
          "internalType": "address",
          "name": "platform_",
          "type": "address"
        }
      ],
      "stateMutability": "nonpayable",
      "type": "constructor"
    },
    {
      "anonymous": false,
      "inputs": [
        {
          "indexed": true,
          "internalType": "address",
          "name": "owner",
          "type": "address"
        },
        {
          "indexed": true,
          "internalType": "address",
          "name": "approved",
          "type": "address"
        },
        {
          "indexed": true,
          "internalType": "uint256",
          "name": "tokenId",
          "type": "uint256"
        }
      ],
      "name": "Approval",
      "type": "event"
    },
    {
      "anonymous": false,
      "inputs": [
        {
          "indexed": true,
          "internalType": "address",
          "name": "owner",
          "type": "address"
        },
        {
          "indexed": true,
          "internalType": "address",
          "name": "operator",
          "type": "address"
        },
        {
          "indexed": false,
          "internalType": "bool",
          "name": "approved",
          "type": "bool"
        }
      ],
      "name": "ApprovalForAll",
      "type": "event"
    },
    {
      "anonymous": false,
      "inputs": [
        {
          "indexed": true,
          "internalType": "address",
          "name": "previousOwner",
          "type": "address"
        },
        {
          "indexed": true,
          "internalType": "address",
          "name": "newOwner",
          "type": "address"
        }
      ],
      "name": "OwnershipTransferred",
      "type": "event"
    },
    {
      "anonymous": false,
      "inputs": [
        {
          "indexed": true,
          "internalType": "address",
          "name": "from",
          "type": "address"
        },
        {
          "indexed": true,
          "internalType": "address",
          "name": "to",
          "type": "address"
        },
        {
          "indexed": true,
          "internalType": "uint256",
          "name": "tokenId",
          "type": "uint256"
        }
      ],
      "name": "Transfer",
      "type": "event"
    },
    {
      "inputs": [
        {
          "internalType": "address",
          "name": "to",
          "type": "address"
        },
        {
          "internalType": "uint256",
          "name": "tokenId",
          "type": "uint256"
        }
      ],
      "name": "approve",
      "outputs": [],
      "stateMutability": "nonpayable",
      "type": "function"
    },
    {
      "inputs": [
        {
          "internalType": "address",
          "name": "owner",
          "type": "address"
        }
      ],
      "name": "balanceOf",
      "outputs": [
        {
          "internalType": "uint256",
          "name": "",
          "type": "uint256"
        }
      ],
      "stateMutability": "view",
      "type": "function"
    },
    {
      "inputs": [],
      "name": "collectionURI",
      "outputs": [
        {
          "internalType": "string",
          "name": "",
          "type": "string"
        }
      ],
      "stateMutability": "view",
      "type": "function"
    },
    {
      "inputs": [
        {
          "internalType": "uint256",
          "name": "tokenId",
          "type": "uint256"
        }
      ],
      "name": "getApproved",
      "outputs": [
        {
          "internalType": "address",
          "name": "",
          "type": "address"
        }
      ],
      "stateMutability": "view",
      "type": "function"
    },
    {
      "inputs": [
        {
          "internalType": "address",
          "name": "owner",
          "type": "address"
        },
        {
          "internalType": "address",
          "name": "operator",
          "type": "address"
        }
      ],
      "name": "isApprovedForAll",
      "outputs": [
        {
          "internalType": "bool",
          "name": "",
          "type": "bool"
        }
      ],
      "stateMutability": "view",
      "type": "function"
    },
    {
      "inputs": [
        {
          "internalType": "string",
          "name": "tokenURI",
          "type": "string"
        }
      ],
      "name": "mint",
      "outputs": [
        {
          "internalType": "uint256",
          "name": "",
          "type": "uint256"
        }
      ],
      "stateMutability": "payable",
      "type": "function"
    },
    {
      "inputs": [],
      "name": "mintFee",
      "outputs": [
        {
          "internalType": "uint256",
          "name": "",
          "type": "uint256"
        }
      ],
      "stateMutability": "view",
      "type": "function"
    },
    {
      "inputs": [],
      "name": "name",
      "outputs": [
        {
          "internalType": "string",
          "name": "",
          "type": "string"
        }
      ],
      "stateMutability": "view",
      "type": "function"
    },
    {
      "inputs": [],
      "name": "owner",
      "outputs": [
        {
          "internalType": "address",
          "name": "",
          "type": "address"
        }
      ],
      "stateMutability": "view",
      "type": "function"
    },
    {
      "inputs": [
        {
          "internalType": "uint256",
          "name": "tokenId",
          "type": "uint256"
        }
      ],
      "name": "ownerOf",
      "outputs": [
        {
          "internalType": "address",
          "name": "",
          "type": "address"
        }
      ],
      "stateMutability": "view",
      "type": "function"
    },
    {
      "inputs": [],
      "name": "platform",
      "outputs": [
        {
          "internalType": "address",
          "name": "",
          "type": "address"
        }
      ],
      "stateMutability": "view",
      "type": "function"
    },
    {
      "inputs": [],
      "name": "renounceOwnership",
      "outputs": [],
      "stateMutability": "nonpayable",
      "type": "function"
    },
    {
      "inputs": [],
      "name": "royaltyFee",
      "outputs": [
        {
          "internalType": "uint96",
          "name": "",
          "type": "uint96"
        }
      ],
      "stateMutability": "view",
      "type": "function"
    },
    {
      "inputs": [
        {
          "internalType": "uint256",
          "name": "tokenId",
          "type": "uint256"
        },
        {
          "internalType": "uint256",
          "name": "salePrice",
          "type": "uint256"
        }
      ],
      "name": "royaltyInfo",
      "outputs": [
        {
          "internalType": "address",
          "name": "",
          "type": "address"
        },
        {
          "internalType": "uint256",
          "name": "",
          "type": "uint256"
        }
      ],
      "stateMutability": "view",
      "type": "function"
    },
    {
      "inputs": [
        {
          "internalType": "address",
          "name": "from",
          "type": "address"
        },
        {
          "internalType": "address",
          "name": "to",
          "type": "address"
        },
        {
          "internalType": "uint256",
          "name": "tokenId",
          "type": "uint256"
        }
      ],
      "name": "safeTransferFrom",
      "outputs": [],
      "stateMutability": "nonpayable",
      "type": "function"
    },
    {
      "inputs": [
        {
          "internalType": "address",
          "name": "from",
          "type": "address"
        },
        {
          "internalType": "address",
          "name": "to",
          "type": "address"
        },
        {
          "internalType": "uint256",
          "name": "tokenId",
          "type": "uint256"
        },
        {
          "internalType": "bytes",
          "name": "data",
          "type": "bytes"
        }
      ],
      "name": "safeTransferFrom",
      "outputs": [],
      "stateMutability": "nonpayable",
      "type": "function"
    },
    {
      "inputs": [
        {
          "internalType": "address",
          "name": "operator",
          "type": "address"
        },
        {
          "internalType": "bool",
          "name": "approved",
          "type": "bool"
        }
      ],
      "name": "setApprovalForAll",
      "outputs": [],
      "stateMutability": "nonpayable",
      "type": "function"
    },
    {
      "inputs": [
        {
          "internalType": "bytes4",
          "name": "interfaceId",
          "type": "bytes4"
        }
      ],
      "name": "supportsInterface",
      "outputs": [
        {
          "internalType": "bool",
          "name": "",
          "type": "bool"
        }
      ],
      "stateMutability": "view",
      "type": "function"
    },
    {
      "inputs": [],
      "name": "symbol",
      "outputs": [
        {
          "internalType": "string",
          "name": "",
          "type": "string"
        }
      ],
      "stateMutability": "view",
      "type": "function"
    },
    {
      "inputs": [],
      "name": "tokenCounter",
      "outputs": [
        {
          "internalType": "uint256",
          "name": "",
          "type": "uint256"
        }
      ],
      "stateMutability": "view",
      "type": "function"
    },
    {
      "inputs": [
        {
          "internalType": "uint256",
          "name": "tokenId",
          "type": "uint256"
        }
      ],
      "name": "tokenURI",
      "outputs": [
        {
          "internalType": "string",
          "name": "",
          "type": "string"
        }
      ],
      "stateMutability": "view",
      "type": "function"
    },
    {
      "inputs": [
        {
          "internalType": "address",
          "name": "from",
          "type": "address"
        },
        {
          "internalType": "address",
          "name": "to",
          "type": "address"
        },
        {
          "internalType": "uint256",
          "name": "tokenId",
          "type": "uint256"
        }
      ],
      "name": "transferFrom",
      "outputs": [],
      "stateMutability": "nonpayable",
      "type": "function"
    },
    {
      "inputs": [
        {
          "internalType": "address",
          "name": "newOwner",
          "type": "address"
        }
      ],
      "name": "transferOwnership",
      "outputs": [],
      "stateMutability": "nonpayable",
      "type": "function"
    }
  ],
  "bytecode": "0x60806040523480156200001157600080fd5b5060405162003b9438038062003b948339818101604052810190620000379190620004c7565b858581600090816200004a919062000801565b5080600190816200005c919062000801565b5050506200007f620000736200017d60201b60201c565b6200018560201b60201c565b6103e8836bffffffffffffffffffffffff161115620000d5576040517f08c379a0000000000000000000000000000000000000000000000000000000008152600401620000cc9062000949565b60405180910390fd5b8360089081620000e6919062000801565b5082600b60146101000a8154816bffffffffffffffffffffffff02191690836bffffffffffffffffffffffff16021790555081600a8190555080600b60006101000a81548173ffffffffffffffffffffffffffffffffffffffff021916908373ffffffffffffffffffffffffffffffffffffffff16021790555062000171336200018560201b60201c565b5050505050506200096b565b600033905090565b6000600660009054906101000a900473ffffffffffffffffffffffffffffffffffffffff16905081600660006101000a81548173ffffffffffffffffffffffffffffffffffffffff021916908373ffffffffffffffffffffffffffffffffffffffff1602179055508173ffffffffffffffffffffffffffffffffffffffff168173ffffffffffffffffffffffffffffffffffffffff167f8be0079c531659141344cd1fd0a4f28419497f9722a3daafe3b4186f6b6457e060405160405180910390a35050565b6000604051905090565b600080fd5b600080fd5b600080fd5b600080fd5b6000601f19601f8301169050919050565b7f4e487b7100000000000000000000000000000000000000000000000000000000600052604160045260246000fd5b620002b48262000269565b810181811067ffffffffffffffff82111715620002d657620002d56200027a565b5b80604052505050565b6000620002eb6200024b565b9050620002f98282620002a9565b919050565b600067ffffffffffffffff8211156200031c576200031b6200027a565b5b620003278262000269565b9050602081019050919050565b60005b838110156200035457808201518184015260208101905062000337565b60008484015250505050565b6000620003776200037184620002fe565b620002df565b90508281526020810184848401111562000396576200039562000264565b5b620003a384828562000334565b509392505050565b600082601f830112620003c357620003c26200025f565b5b8151620003d584826020860162000360565b91505092915050565b60006bffffffffffffffffffffffff82169050919050565b6200040181620003de565b81146200040d57600080fd5b50565b6000815190506200042181620003f6565b92915050565b6000819050919050565b6200043c8162000427565b81146200044857600080fd5b50565b6000815190506200045c8162000431565b92915050565b600073ffffffffffffffffffffffffffffffffffffffff82169050919050565b60006200048f8262000462565b9050919050565b620004a18162000482565b8114620004ad57600080fd5b50565b600081519050620004c18162000496565b92915050565b60008060008060008060c08789031215620004e757620004e662000255565b5b600087015167ffffffffffffffff8111156200050857620005076200025a565b5b6200051689828a01620003ab565b965050602087015167ffffffffffffffff8111156200053a57620005396200025a565b5b6200054889828a01620003ab565b955050604087015167ffffffffffffffff8111156200056c576200056b6200025a565b5b6200057a89828a01620003ab565b94505060606200058d89828a0162000410565b9350506080620005a089828a016200044b565b92505060a0620005b389828a01620004b0565b9150509295509295509295565b600081519050919050565b7f4e487b7100000000000000000000000000000000000000000000000000000000600052602260045260246000fd5b600060028204905060018216806200061357607f821691505b602082108103620006295762000628620005cb565b5b50919050565b60008190508160005260206000209050919050565b60006020601f8301049050919050565b600082821b905092915050565b600060088302620006937fffffffffffffffffffffffffffffffffffffffffffffffffffffffffffffffff8262000654565b6200069f868362000654565b95508019841693508086168417925050509392505050565b6000819050919050565b6000620006e2620006dc620006d68462000427565b620006b7565b62000427565b9050919050565b6000819050919050565b620006fe83620006c1565b620007166200070d82620006e9565b84845462000661565b825550505050565b600090565b6200072d6200071e565b6200073a818484620006f3565b505050565b5b8181101562000762576200075660008262000723565b60018101905062000740565b5050565b601f821115620007b1576200077b816200062f565b620007868462000644565b8101602085101562000796578190505b620007ae620007a58562000644565b8301826200073f565b50505b505050565b600082821c905092915050565b6000620007d660001984600802620007b6565b1980831691505092915050565b6000620007f18383620007c3565b9150826002028217905092915050565b6200080c82620005c0565b67ffffffffffffffff8111156200082857620008276200027a565b5b620008348254620005fa565b6200084182828562000766565b600060209050601f83116001811462000879576000841562000864578287015190505b620008708582620007e3565b865550620008e0565b601f19841662000889866200062f565b60005b82811015620008b3578489015182556001820191506020850194506020810190506200088c565b86831015620008d35784890151620008cf601f891682620007c3565b8355505b6001600288020188555050505b505050505050565b600082825260208201905092915050565b7f4d61782031302500000000000000000000000000000000000000000000000000600082015250565b600062000931600783620008e8565b91506200093e82620008f9565b602082019050919050565b60006020820190508181036000830152620009648162000922565b9050919050565b613219806200097b6000396000f3fe6080604052600436106101405760003560e01c8063715018a6116100b6578063b8997a971161006f578063b8997a971461045d578063c87b56dd14610488578063d082e381146104c5578063d85d3d27146104f0578063e985e9c514610520578063f2fde38b1461055d57610140565b8063715018a6146103735780638da5cb5b1461038a57806395d89b41146103b5578063a22cb465146103e0578063a5097ebf14610409578063b88d4fde1461043457610140565b806323b872dd1161010857806323b872dd1461023e5780632a55205a1461026757806342842e0e146102a55780634bde38c8146102ce5780636352211e146102f957806370a082311461033657610140565b806301ffc9a71461014557806306fdde0314610182578063081812fc146101ad578063095ea7b3146101ea57806313966db514610213575b600080fd5b34801561015157600080fd5b5061016c60048036038101906101679190611e6c565b610586565b6040516101799190611eb4565b60405180910390f35b34801561018e57600080fd5b50610197610600565b6040516101a49190611f5f565b60405180910390f35b3480156101b957600080fd5b506101d460048036038101906101cf9190611fb7565b610692565b6040516101e19190612025565b60405180910390f35b3480156101f657600080fd5b50610211600480360381019061020c919061206c565b6106d8565b005b34801561021f57600080fd5b506102286107ef565b60405161023591906120bb565b60405180910390f35b34801561024a57600080fd5b50610265600480360381019061026091906120d6565b6107f5565b005b34801561027357600080fd5b5061028e60048036038101906102899190612129565b610855565b60405161029c929190612169565b60405180910390f35b3480156102b157600080fd5b506102cc60048036038101906102c791906120d6565b6108de565b005b3480156102da57600080fd5b506102e36108fe565b6040516102f09190612025565b60405180910390f35b34801561030557600080fd5b50610320600480360381019061031b9190611fb7565b610924565b60405161032d9190612025565b60405180910390f35b34801561034257600080fd5b5061035d60048036038101906103589190612192565b6109aa565b60405161036a91906120bb565b60405180910390f35b34801561037f57600080fd5b50610388610a61565b005b34801561039657600080fd5b5061039f610a75565b6040516103ac9190612025565b60405180910390f35b3480156103c157600080fd5b506103ca610a9f565b6040516103d79190611f5f565b60405180910390f35b3480156103ec57600080fd5b50610407600480360381019061040291906121eb565b610b31565b005b34801561041557600080fd5b5061041e610b47565b60405161042b9190611f5f565b60405180910390f35b34801561044057600080fd5b5061045b60048036038101906104569190612360565b610bd5565b005b34801561046957600080fd5b50610472610c37565b60405161047f919061240a565b60405180910390f35b34801561049457600080fd5b506104af60048036038101906104aa9190611fb7565b610c55565b6040516104bc9190611f5f565b60405180910390f35b3480156104d157600080fd5b506104da610d42565b6040516104e791906120bb565b60405180910390f35b61050a60048036038101906105059190612485565b610d53565b60405161051791906120bb565b60405180910390f35b34801561052c57600080fd5b50610547600480360381019061054291906124d2565b610f09565b6040516105549190611eb4565b60405180910390f35b34801561056957600080fd5b50610584600480360381019061057f9190612192565b610f9d565b005b60007f2a55205a000000000000000000000000000000000000000000000000000000007bffffffffffffffffffffffffffffffffffffffffffffffffffffffff1916827bffffffffffffffffffffffffffffffffffffffffffffffffffffffff191614806105f957506105f882611020565b5b9050919050565b60606000805461060f90612541565b80601f016020809104026020016040519081016040528092919081815260200182805461063b90612541565b80156106885780601f1061065d57610100808354040283529160200191610688565b820191906000526020600020905b81548152906001019060200180831161066b57829003601f168201915b5050505050905090565b600061069d82611102565b6004600083815260200190815260200160002060009054906101000a900473ffffffffffffffffffffffffffffffffffffffff169050919050565b60006106e382610924565b90508073ffffffffffffffffffffffffffffffffffffffff168373ffffffffffffffffffffffffffffffffffffffff1603610753576040517f08c379a000000000000000000000000000000000000000000000000000000000815260040161074a906125e4565b60405180910390fd5b8073ffffffffffffffffffffffffffffffffffffffff1661077261114d565b73ffffffffffffffffffffffffffffffffffffffff1614806107a157506107a08161079b61114d565b610f09565b5b6107e0576040517f08c379a00000000000000000000000000000000000000000000000000000000081526004016107d790612676565b60405180910390fd5b6107ea8383611155565b505050565b600a5481565b61080661080061114d565b8261120e565b610845576040517f08c379a000000000000000000000000000000000000000000000000000000000815260040161083c90612708565b60405180910390fd5b6108508383836112a3565b505050565b6000806000612710600b60149054906101000a90046bffffffffffffffffffffffff166bffffffffffffffffffffffff16856108919190612757565b61089b91906127c8565b9050600c600086815260200190815260200160002060009054906101000a900473ffffffffffffffffffffffffffffffffffffffff168192509250509250929050565b6108f983838360405180602001604052806000815250610bd5565b505050565b600b60009054906101000a900473ffffffffffffffffffffffffffffffffffffffff1681565b6000806109308361159c565b9050600073ffffffffffffffffffffffffffffffffffffffff168173ffffffffffffffffffffffffffffffffffffffff16036109a1576040517f08c379a000000000000000000000000000000000000000000000000000000000815260040161099890612845565b60405180910390fd5b80915050919050565b60008073ffffffffffffffffffffffffffffffffffffffff168273ffffffffffffffffffffffffffffffffffffffff1603610a1a576040517f08c379a0000000000000000000000000000000000000000000000000000000008152600401610a11906128d7565b60405180910390fd5b600360008373ffffffffffffffffffffffffffffffffffffffff1673ffffffffffffffffffffffffffffffffffffffff168152602001908152602001600020549050919050565b610a696115d9565b610a736000611657565b565b6000600660009054906101000a900473ffffffffffffffffffffffffffffffffffffffff16905090565b606060018054610aae90612541565b80601f0160208091040260200160405190810160405280929190818152602001828054610ada90612541565b8015610b275780601f10610afc57610100808354040283529160200191610b27565b820191906000526020600020905b815481529060010190602001808311610b0a57829003601f168201915b5050505050905090565b610b43610b3c61114d565b838361171d565b5050565b60088054610b5490612541565b80601f0160208091040260200160405190810160405280929190818152602001828054610b8090612541565b8015610bcd5780601f10610ba257610100808354040283529160200191610bcd565b820191906000526020600020905b815481529060010190602001808311610bb057829003601f168201915b505050505081565b610be6610be061114d565b8361120e565b610c25576040517f08c379a0000000000000000000000000000000000000000000000000000000008152600401610c1c90612708565b60405180910390fd5b610c3184848484611889565b50505050565b600b60149054906101000a90046bffffffffffffffffffffffff1681565b6060610c60826118e5565b610c9f576040517f08c379a0000000000000000000000000000000000000000000000000000000008152600401610c9690612943565b60405180910390fd5b600960008381526020019081526020016000208054610cbd90612541565b80601f0160208091040260200160405190810160405280929190818152602001828054610ce990612541565b8015610d365780601f10610d0b57610100808354040283529160200191610d36565b820191906000526020600020905b815481529060010190602001808311610d1957829003601f168201915b50505050509050919050565b6000610d4e6007611926565b905090565b6000600a543414610d99576040517f08c379a0000000000000000000000000000000000000000000000000000000008152600401610d90906129af565b60405180910390fd5b6000600b60009054906101000a900473ffffffffffffffffffffffffffffffffffffffff1673ffffffffffffffffffffffffffffffffffffffff1634604051610de190612a00565b60006040518083038185875af1925050503d8060008114610e1e576040519150601f19603f3d011682016040523d82523d6000602084013e610e23565b606091505b5050905080610e67576040517f08c379a0000000000000000000000000000000000000000000000000000000008152600401610e5e90612a61565b60405180910390fd5b610e716007611934565b6000610e7d6007611926565b9050610e89338261194a565b8484600960008481526020019081526020016000209182610eab929190612c38565b5033600c600083815260200190815260200160002060006101000a81548173ffffffffffffffffffffffffffffffffffffffff021916908373ffffffffffffffffffffffffffffffffffffffff160217905550809250505092915050565b6000600560008473ffffffffffffffffffffffffffffffffffffffff1673ffffffffffffffffffffffffffffffffffffffff16815260200190815260200160002060008373ffffffffffffffffffffffffffffffffffffffff1673ffffffffffffffffffffffffffffffffffffffff16815260200190815260200160002060009054906101000a900460ff16905092915050565b610fa56115d9565b600073ffffffffffffffffffffffffffffffffffffffff168173ffffffffffffffffffffffffffffffffffffffff1603611014576040517f08c379a000000000000000000000000000000000000000000000000000000000815260040161100b90612d7a565b60405180910390fd5b61101d81611657565b50565b60007f80ac58cd000000000000000000000000000000000000000000000000000000007bffffffffffffffffffffffffffffffffffffffffffffffffffffffff1916827bffffffffffffffffffffffffffffffffffffffffffffffffffffffff191614806110eb57507f5b5e139f000000000000000000000000000000000000000000000000000000007bffffffffffffffffffffffffffffffffffffffffffffffffffffffff1916827bffffffffffffffffffffffffffffffffffffffffffffffffffffffff1916145b806110fb57506110fa82611968565b5b9050919050565b61110b816118e5565b61114a576040517f08c379a000000000000000000000000000000000000000000000000000000000815260040161114190612845565b60405180910390fd5b50565b600033905090565b816004600083815260200190815260200160002060006101000a81548173ffffffffffffffffffffffffffffffffffffffff021916908373ffffffffffffffffffffffffffffffffffffffff160217905550808273ffffffffffffffffffffffffffffffffffffffff166111c883610924565b73ffffffffffffffffffffffffffffffffffffffff167f8c5be1e5ebec7d5bd14f71427d1e84f3dd0314c0f7b2291e5b200ac8c7c3b92560405160405180910390a45050565b60008061121a83610924565b90508073ffffffffffffffffffffffffffffffffffffffff168473ffffffffffffffffffffffffffffffffffffffff16148061125c575061125b8185610f09565b5b8061129a57508373ffffffffffffffffffffffffffffffffffffffff1661128284610692565b73ffffffffffffffffffffffffffffffffffffffff16145b91505092915050565b8273ffffffffffffffffffffffffffffffffffffffff166112c382610924565b73ffffffffffffffffffffffffffffffffffffffff1614611319576040517f08c379a000000000000000000000000000000000000000000000000000000000815260040161131090612e0c565b60405180910390fd5b600073ffffffffffffffffffffffffffffffffffffffff168273ffffffffffffffffffffffffffffffffffffffff1603611388576040517f08c379a000000000000000000000000000000000000000000000000000000000815260040161137f90612e9e565b60405180910390fd5b61139583838360016119d2565b8273ffffffffffffffffffffffffffffffffffffffff166113b582610924565b73ffffffffffffffffffffffffffffffffffffffff161461140b576040517f08c379a000000000000000000000000000000000000000000000000000000000815260040161140290612e0c565b60405180910390fd5b6004600082815260200190815260200160002060006101000a81549073ffffffffffffffffffffffffffffffffffffffff02191690556001600360008573ffffffffffffffffffffffffffffffffffffffff1673ffffffffffffffffffffffffffffffffffffffff168152602001908152602001600020600082825403925050819055506001600360008473ffffffffffffffffffffffffffffffffffffffff1673ffffffffffffffffffffffffffffffffffffffff16815260200190815260200160002060008282540192505081905550816002600083815260200190815260200160002060006101000a81548173ffffffffffffffffffffffffffffffffffffffff021916908373ffffffffffffffffffffffffffffffffffffffff160217905550808273ffffffffffffffffffffffffffffffffffffffff168473ffffffffffffffffffffffffffffffffffffffff167fddf252ad1be2c89b69c2b068fc378daa952ba7f163c4a11628f55a4df523b3ef60405160405180910390a461159783838360016119d8565b505050565b60006002600083815260200190815260200160002060009054906101000a900473ffffffffffffffffffffffffffffffffffffffff169050919050565b6115e161114d565b73ffffffffffffffffffffffffffffffffffffffff166115ff610a75565b73ffffffffffffffffffffffffffffffffffffffff1614611655576040517f08c379a000000000000000000000000000000000000000000000000000000000815260040161164c90612f0a565b60405180910390fd5b565b6000600660009054906101000a900473ffffffffffffffffffffffffffffffffffffffff16905081600660006101000a81548173ffffffffffffffffffffffffffffffffffffffff021916908373ffffffffffffffffffffffffffffffffffffffff1602179055508173ffffffffffffffffffffffffffffffffffffffff168173ffffffffffffffffffffffffffffffffffffffff167f8be0079c531659141344cd1fd0a4f28419497f9722a3daafe3b4186f6b6457e060405160405180910390a35050565b8173ffffffffffffffffffffffffffffffffffffffff168373ffffffffffffffffffffffffffffffffffffffff160361178b576040517f08c379a000000000000000000000000000000000000000000000000000000000815260040161178290612f76565b60405180910390fd5b80600560008573ffffffffffffffffffffffffffffffffffffffff1673ffffffffffffffffffffffffffffffffffffffff16815260200190815260200160002060008473ffffffffffffffffffffffffffffffffffffffff1673ffffffffffffffffffffffffffffffffffffffff16815260200190815260200160002060006101000a81548160ff0219169083151502179055508173ffffffffffffffffffffffffffffffffffffffff168373ffffffffffffffffffffffffffffffffffffffff167f17307eab39ab6107e8899845ad3d59bd9653f200f220920489ca2b5937696c318360405161187c9190611eb4565b60405180910390a3505050565b6118948484846112a3565b6118a0848484846119de565b6118df576040517f08c379a00000000000000000000000000000000000000000000000000000000081526004016118d690613008565b60405180910390fd5b50505050565b60008073ffffffffffffffffffffffffffffffffffffffff166119078361159c565b73ffffffffffffffffffffffffffffffffffffffff1614159050919050565b600081600001549050919050565b6001816000016000828254019250508190555050565b611964828260405180602001604052806000815250611b65565b5050565b60007f01ffc9a7000000000000000000000000000000000000000000000000000000007bffffffffffffffffffffffffffffffffffffffffffffffffffffffff1916827bffffffffffffffffffffffffffffffffffffffffffffffffffffffff1916149050919050565b50505050565b50505050565b60006119ff8473ffffffffffffffffffffffffffffffffffffffff16611bc0565b15611b58578373ffffffffffffffffffffffffffffffffffffffff1663150b7a02611a2861114d565b8786866040518563ffffffff1660e01b8152600401611a4a949392919061307d565b6020604051808303816000875af1925050508015611a8657506040513d601f19601f82011682018060405250810190611a8391906130de565b60015b611b08573d8060008114611ab6576040519150601f19603f3d011682016040523d82523d6000602084013e611abb565b606091505b506000815103611b00576040517f08c379a0000000000000000000000000000000000000000000000000000000008152600401611af790613008565b60405180910390fd5b805181602001fd5b63150b7a0260e01b7bffffffffffffffffffffffffffffffffffffffffffffffffffffffff1916817bffffffffffffffffffffffffffffffffffffffffffffffffffffffff191614915050611b5d565b600190505b949350505050565b611b6f8383611be3565b611b7c60008484846119de565b611bbb576040517f08c379a0000000000000000000000000000000000000000000000000000000008152600401611bb290613008565b60405180910390fd5b505050565b6000808273ffffffffffffffffffffffffffffffffffffffff163b119050919050565b600073ffffffffffffffffffffffffffffffffffffffff168273ffffffffffffffffffffffffffffffffffffffff1603611c52576040517f08c379a0000000000000000000000000000000000000000000000000000000008152600401611c4990613157565b60405180910390fd5b611c5b816118e5565b15611c9b576040517f08c379a0000000000000000000000000000000000000000000000000000000008152600401611c92906131c3565b60405180910390fd5b611ca96000838360016119d2565b611cb2816118e5565b15611cf2576040517f08c379a0000000000000000000000000000000000000000000000000000000008152600401611ce9906131c3565b60405180910390fd5b6001600360008473ffffffffffffffffffffffffffffffffffffffff1673ffffffffffffffffffffffffffffffffffffffff16815260200190815260200160002060008282540192505081905550816002600083815260200190815260200160002060006101000a81548173ffffffffffffffffffffffffffffffffffffffff021916908373ffffffffffffffffffffffffffffffffffffffff160217905550808273ffffffffffffffffffffffffffffffffffffffff16600073ffffffffffffffffffffffffffffffffffffffff167fddf252ad1be2c89b69c2b068fc378daa952ba7f163c4a11628f55a4df523b3ef60405160405180910390a4611dfc6000838360016119d8565b5050565b6000604051905090565b600080fd5b600080fd5b60007fffffffff0000000000000000000000000000000000000000000000000000000082169050919050565b611e4981611e14565b8114611e5457600080fd5b50565b600081359050611e6681611e40565b92915050565b600060208284031215611e8257611e81611e0a565b5b6000611e9084828501611e57565b91505092915050565b60008115159050919050565b611eae81611e99565b82525050565b6000602082019050611ec96000830184611ea5565b92915050565b600081519050919050565b600082825260208201905092915050565b60005b83811015611f09578082015181840152602081019050611eee565b60008484015250505050565b6000601f19601f8301169050919050565b6000611f3182611ecf565b611f3b8185611eda565b9350611f4b818560208601611eeb565b611f5481611f15565b840191505092915050565b60006020820190508181036000830152611f798184611f26565b905092915050565b6000819050919050565b611f9481611f81565b8114611f9f57600080fd5b50565b600081359050611fb181611f8b565b92915050565b600060208284031215611fcd57611fcc611e0a565b5b6000611fdb84828501611fa2565b91505092915050565b600073ffffffffffffffffffffffffffffffffffffffff82169050919050565b600061200f82611fe4565b9050919050565b61201f81612004565b82525050565b600060208201905061203a6000830184612016565b92915050565b61204981612004565b811461205457600080fd5b50565b60008135905061206681612040565b92915050565b6000806040838503121561208357612082611e0a565b5b600061209185828601612057565b92505060206120a285828601611fa2565b9150509250929050565b6120b581611f81565b82525050565b60006020820190506120d060008301846120ac565b92915050565b6000806000606084860312156120ef576120ee611e0a565b5b60006120fd86828701612057565b935050602061210e86828701612057565b925050604061211f86828701611fa2565b9150509250925092565b600080604083850312156121405761213f611e0a565b5b600061214e85828601611fa2565b925050602061215f85828601611fa2565b9150509250929050565b600060408201905061217e6000830185612016565b61218b60208301846120ac565b9392505050565b6000602082840312156121a8576121a7611e0a565b5b60006121b684828501612057565b91505092915050565b6121c881611e99565b81146121d357600080fd5b50565b6000813590506121e5816121bf565b92915050565b6000806040838503121561220257612201611e0a565b5b600061221085828601612057565b9250506020612221858286016121d6565b9150509250929050565b600080fd5b600080fd5b7f4e487b7100000000000000000000000000000000000000000000000000000000600052604160045260246000fd5b61226d82611f15565b810181811067ffffffffffffffff8211171561228c5761228b612235565b5b80604052505050565b600061229f611e00565b90506122ab8282612264565b919050565b600067ffffffffffffffff8211156122cb576122ca612235565b5b6122d482611f15565b9050602081019050919050565b82818337600083830152505050565b60006123036122fe846122b0565b612295565b90508281526020810184848401111561231f5761231e612230565b5b61232a8482856122e1565b509392505050565b600082601f8301126123475761234661222b565b5b81356123578482602086016122f0565b91505092915050565b6000806000806080858703121561237a57612379611e0a565b5b600061238887828801612057565b945050602061239987828801612057565b93505060406123aa87828801611fa2565b925050606085013567ffffffffffffffff8111156123cb576123ca611e0f565b5b6123d787828801612332565b91505092959194509250565b60006bffffffffffffffffffffffff82169050919050565b612404816123e3565b82525050565b600060208201905061241f60008301846123fb565b92915050565b600080fd5b600080fd5b60008083601f8401126124455761244461222b565b5b8235905067ffffffffffffffff81111561246257612461612425565b5b60208301915083600182028301111561247e5761247d61242a565b5b9250929050565b6000806020838503121561249c5761249b611e0a565b5b600083013567ffffffffffffffff8111156124ba576124b9611e0f565b5b6124c68582860161242f565b92509250509250929050565b600080604083850312156124e9576124e8611e0a565b5b60006124f785828601612057565b925050602061250885828601612057565b9150509250929050565b7f4e487b7100000000000000000000000000000000000000000000000000000000600052602260045260246000fd5b6000600282049050600182168061255957607f821691505b60208210810361256c5761256b612512565b5b50919050565b7f4552433732313a20617070726f76616c20746f2063757272656e74206f776e6560008201527f7200000000000000000000000000000000000000000000000000000000000000602082015250565b60006125ce602183611eda565b91506125d982612572565b604082019050919050565b600060208201905081810360008301526125fd816125c1565b9050919050565b7f4552433732313a20617070726f76652063616c6c6572206973206e6f7420746f60008201527f6b656e206f776e6572206f7220617070726f76656420666f7220616c6c000000602082015250565b6000612660603d83611eda565b915061266b82612604565b604082019050919050565b6000602082019050818103600083015261268f81612653565b9050919050565b7f4552433732313a2063616c6c6572206973206e6f7420746f6b656e206f776e6560008201527f72206f7220617070726f76656400000000000000000000000000000000000000602082015250565b60006126f2602d83611eda565b91506126fd82612696565b604082019050919050565b60006020820190508181036000830152612721816126e5565b9050919050565b7f4e487b7100000000000000000000000000000000000000000000000000000000600052601160045260246000fd5b600061276282611f81565b915061276d83611f81565b925082820261277b81611f81565b9150828204841483151761279257612791612728565b5b5092915050565b7f4e487b7100000000000000000000000000000000000000000000000000000000600052601260045260246000fd5b60006127d382611f81565b91506127de83611f81565b9250826127ee576127ed612799565b5b828204905092915050565b7f4552433732313a20696e76616c696420746f6b656e2049440000000000000000600082015250565b600061282f601883611eda565b915061283a826127f9565b602082019050919050565b6000602082019050818103600083015261285e81612822565b9050919050565b7f4552433732313a2061646472657373207a65726f206973206e6f74206120766160008201527f6c6964206f776e65720000000000000000000000000000000000000000000000602082015250565b60006128c1602983611eda565b91506128cc82612865565b604082019050919050565b600060208201905081810360008301526128f0816128b4565b9050919050565b7f4e6f6e6578697374656e7420746f6b656e000000000000000000000000000000600082015250565b600061292d601183611eda565b9150612938826128f7565b602082019050919050565b6000602082019050818103600083015261295c81612920565b9050919050565b7f57726f6e67206d696e7420666565000000000000000000000000000000000000600082015250565b6000612999600e83611eda565b91506129a482612963565b602082019050919050565b600060208201905081810360008301526129c88161298c565b9050919050565b600081905092915050565b50565b60006129ea6000836129cf565b91506129f5826129da565b600082019050919050565b6000612a0b826129dd565b9150819050919050565b7f466565207472616e73666572206661696c656400000000000000000000000000600082015250565b6000612a4b601383611eda565b9150612a5682612a15565b602082019050919050565b60006020820190508181036000830152612a7a81612a3e565b9050919050565b600082905092915050565b60008190508160005260206000209050919050565b60006020601f8301049050919050565b600082821b905092915050565b600060088302612aee7fffffffffffffffffffffffffffffffffffffffffffffffffffffffffffffffff82612ab1565b612af88683612ab1565b95508019841693508086168417925050509392505050565b6000819050919050565b6000612b35612b30612b2b84611f81565b612b10565b611f81565b9050919050565b6000819050919050565b612b4f83612b1a565b612b63612b5b82612b3c565b848454612abe565b825550505050565b600090565b612b78612b6b565b612b83818484612b46565b505050565b5b81811015612ba757612b9c600082612b70565b600181019050612b89565b5050565b601f821115612bec57612bbd81612a8c565b612bc684612aa1565b81016020851015612bd5578190505b612be9612be185612aa1565b830182612b88565b50505b505050565b600082821c905092915050565b6000612c0f60001984600802612bf1565b1980831691505092915050565b6000612c288383612bfe565b9150826002028217905092915050565b612c428383612a81565b67ffffffffffffffff811115612c5b57612c5a612235565b5b612c658254612541565b612c70828285612bab565b6000601f831160018114612c9f5760008415612c8d578287013590505b612c978582612c1c565b865550612cff565b601f198416612cad86612a8c565b60005b82811015612cd557848901358255600182019150602085019450602081019050612cb0565b86831015612cf25784890135612cee601f891682612bfe565b8355505b6001600288020188555050505b50505050505050565b7f4f776e61626c653a206e6577206f776e657220697320746865207a65726f206160008201527f6464726573730000000000000000000000000000000000000000000000000000602082015250565b6000612d64602683611eda565b9150612d6f82612d08565b604082019050919050565b60006020820190508181036000830152612d9381612d57565b9050919050565b7f4552433732313a207472616e736665722066726f6d20696e636f72726563742060008201527f6f776e6572000000000000000000000000000000000000000000000000000000602082015250565b6000612df6602583611eda565b9150612e0182612d9a565b604082019050919050565b60006020820190508181036000830152612e2581612de9565b9050919050565b7f4552433732313a207472616e7366657220746f20746865207a65726f2061646460008201527f7265737300000000000000000000000000000000000000000000000000000000602082015250565b6000612e88602483611eda565b9150612e9382612e2c565b604082019050919050565b60006020820190508181036000830152612eb781612e7b565b9050919050565b7f4f776e61626c653a2063616c6c6572206973206e6f7420746865206f776e6572600082015250565b6000612ef4602083611eda565b9150612eff82612ebe565b602082019050919050565b60006020820190508181036000830152612f2381612ee7565b9050919050565b7f4552433732313a20617070726f766520746f2063616c6c657200000000000000600082015250565b6000612f60601983611eda565b9150612f6b82612f2a565b602082019050919050565b60006020820190508181036000830152612f8f81612f53565b9050919050565b7f4552433732313a207472616e7366657220746f206e6f6e20455243373231526560008201527f63656976657220696d706c656d656e7465720000000000000000000000000000602082015250565b6000612ff2603283611eda565b9150612ffd82612f96565b604082019050919050565b6000602082019050818103600083015261302181612fe5565b9050919050565b600081519050919050565b600082825260208201905092915050565b600061304f82613028565b6130598185613033565b9350613069818560208601611eeb565b61307281611f15565b840191505092915050565b60006080820190506130926000830187612016565b61309f6020830186612016565b6130ac60408301856120ac565b81810360608301526130be8184613044565b905095945050505050565b6000815190506130d881611e40565b92915050565b6000602082840312156130f4576130f3611e0a565b5b6000613102848285016130c9565b91505092915050565b7f4552433732313a206d696e7420746f20746865207a65726f2061646472657373600082015250565b6000613141602083611eda565b915061314c8261310b565b602082019050919050565b6000602082019050818103600083015261317081613134565b9050919050565b7f4552433732313a20746f6b656e20616c7265616479206d696e74656400000000600082015250565b60006131ad601c83611eda565b91506131b882613177565b602082019050919050565b600060208201905081810360008301526131dc816131a0565b905091905056fea264697066735822122097729c9a88cb0272620483a1594d0902579691b83ff2d9211175e9a6a08e9b7064736f6c63430008140033",
  "linkReferences": {},
  "deployedLinkReferences": {}
}